{
  "contractName": "SimpleStore",
  "abi": [
    {
      "anonymous": false,
      "inputs": [
        {
          "indexed": true,
          "name": "_value",
          "type": "uint256"
        },
        {
          "indexed": false,
          "name": "_sender",
          "type": "address"
        }
      ],
      "name": "NewValueSet",
      "type": "event",
      "signature": "0x7e0b7a35f017ec94e71d7012fe8fa8011f1dab6090674f92de08f8092ab30dda"
    },
    {
      "anonymous": false,
      "inputs": [
        {
          "indexed": true,
          "name": "_value",
          "type": "uint256"
        },
        {
          "indexed": false,
          "name": "_sender",
          "type": "address"
        }
      ],
      "name": "NewValueSetAgain",
      "type": "event",
      "signature": "0xbd0b1e25f4b9c4b15621999967b6f720a9d31b208d1b70ec690fb4f46d445c82"
    },
    {
      "constant": false,
      "inputs": [
        {
          "name": "_value",
          "type": "uint256"
        }
      ],
      "name": "set",
      "outputs": [],
      "payable": false,
      "stateMutability": "nonpayable",
      "type": "function",
      "signature": "0x60fe47b1"
    },
    {
      "constant": false,
      "inputs": [
        {
          "name": "_value",
          "type": "uint256"
        }
      ],
      "name": "setAgain",
      "outputs": [],
      "payable": false,
      "stateMutability": "nonpayable",
      "type": "function",
      "signature": "0xcf718921"
    },
    {
      "constant": true,
      "inputs": [],
      "name": "get",
      "outputs": [
        {
          "name": "",
          "type": "uint256"
        },
        {
          "name": "",
          "type": "address"
        }
      ],
      "payable": false,
      "stateMutability": "view",
      "type": "function",
      "signature": "0x6d4ce63c"
    }
  ],
  "bytecode": "0x608060405234801561001057600080fd5b5061024e806100206000396000f3fe608060405260043610610057576000357c0100000000000000000000000000000000000000000000000000000000900463ffffffff16806360fe47b11461005c5780636d4ce63c14610097578063cf718921146100f5575b600080fd5b34801561006857600080fd5b506100956004803603602081101561007f57600080fd5b8101908080359060200190929190505050610130565b005b3480156100a357600080fd5b506100ac6101a0565b604051808381526020018273ffffffffffffffffffffffffffffffffffffffff1673ffffffffffffffffffffffffffffffffffffffff1681526020019250505060405180910390f35b34801561010157600080fd5b5061012e6004803603602081101561011857600080fd5b81019080803590602001909291905050506101b2565b005b806000819055506000547f7e0b7a35f017ec94e71d7012fe8fa8011f1dab6090674f92de08f8092ab30dda33604051808273ffffffffffffffffffffffffffffffffffffffff1673ffffffffffffffffffffffffffffffffffffffff16815260200191505060405180910390a250565b60008060005433809050915091509091565b806000819055506000547fbd0b1e25f4b9c4b15621999967b6f720a9d31b208d1b70ec690fb4f46d445c8233604051808273ffffffffffffffffffffffffffffffffffffffff1673ffffffffffffffffffffffffffffffffffffffff16815260200191505060405180910390a25056fea165627a7a72305820e689d80f9af12982c2190e474b5389243d64fae529aa74b7af1f4fcd3525c1430029",
  "source": "pragma solidity ^0.5.0;\n\ncontract SimpleStore {\n  uint256 value;\n\n  event NewValueSet(uint256 indexed _value, address _sender);\n  event NewValueSetAgain(uint256 indexed _value, address _sender);\n\n  function set(uint256 _value) public {\n    value = _value;\n    emit NewValueSet(value, msg.sender);\n  }\n\n  function setAgain(uint256 _value) public {\n    value = _value;\n    emit NewValueSetAgain(value, msg.sender);\n  }\n\n  function get() public view returns (uint256, address) {\n    return (value, msg.sender);\n  }\n}\n",
  "sourcePath": "/home/elrypto/truffle-dappchain-example/contracts/SimpleStore.sol",
  "compiler": {
    "name": "solc",
    "version": "0.5.0+commit.1d4f565a.Emscripten.clang"
  },
  "schemaVersion": "3.0.1",
  "updatedAt": "2019-11-19T18:09:36.404Z",
  "devdoc": {
    "methods": {}
  },
  "userdoc": {
    "methods": {}
  }
}